:020000040000FA
:1030000030080020D53200001533000009320000DE
:10301000193300001B3300001D33000000000000C6
:103020000000000000000000000000001F3300004E
:10303000213300000000000023330000253300008E
:103040002733000027330000273300002733000018
:103050002733000027330000273300002733000008
:1030600027330000273300002733000027330000F8
:1030700027330000273300002733000027330000E8
:1030800027330000273300002733000027330000D8
:1030900027330000273300002733000027330000C8
:1030A00027330000273300002733000027330000B8
:1030B00027330000273300002733000027330000A8
:1030C0002733000027330000273300002733000098
:1030D0002733000027330000273300002733000088
:1030E0002733000027330000273300002733000078
:1030F0002733000027330000273300002733000068
:103100002733000027330000273300002733000057
:103110002733000027330000273300002733000047
:103120002733000027330000273300002733000037
:103130002733000027330000273300002733000027
:103140002733000027330000273300002733000017
:103150002733000027330000273300002733000007
:1031600027330000273300002733000027330000F7
:1031700027330000273300002733000027330000E7
:1031800027330000273300002733000027330000D7
:1031900027330000273300002733000027330000C7
:1031A00027330000273300002733000027330000B7
:1031B00027330000273300002733000027330000A7
:1031C0002733000027330000273300002733000097
:1031D0002733000027330000273300002733000087
:1031E0002733000027330000273300002733000077
:1031F00027330000DFF80CD001F0C4F80048004786
:10320000913300003008002004207146084202D0AB
:10321000EFF3098001E0EFF308807146004A1047A0
:103220005935000010B500F0E1FD234A90604FF0E1
:103230008043D3F8101201F00701022903D002F1F4
:103240000C0050F82100D3F8201201F00F01491CA6
:10325000B0FBF1F01060194908444900B0FBF1F0EF
:10326000506010BD1648016841F4700101601548B6
:10327000C16C21F00F0141F00801C1641248D0F87F
:10328000901041F48021C0F89010016841F00201D3
:1032900001600E490A6802F0F7320A604A6802F0DB
:1032A000F7324A60016821F00201016008480168B4
:1032B00021F0F001016070470000002020A107000C
:1032C00088ED00E000C00040080200400411044006
:1032D0004041004014484FF0590101604FF0160181
:1032E00001604FF0880101601048416841F480415D
:1032F00041600F48416841F002014160416841F07E
:10330000040141600B48804707484FF0000101600D
:1033100009480047FEE7FEE7FEE7FEE7FEE7FEE7B7
:10332000FEE7FEE7FEE7FEE7000100400002004086
:103330000070004065320000F531000070B52F4884
:10334000016821F0F0010160012000F078FE012009
:1033500000F00EFD2A4800F02BFE11208407C4F86F
:103360003402284D284600F03FFC00221146284632
:1033700000F0DDFBE06B20F47F00E063E06B40F4E5
:10338000CC00E06370BD4FF4E1311F4800F0C9B9D3
:103390005920840716218822C4F80001C4F80011BE
:1033A000C4F80021D4F80031002BF5D0FFF7C6FF98
:1033B0000020C4F80001FFF7E6FF1448016814A0DC
:1033C00001F012F816A001F00FF823A001F00CF89C
:1033D0002FA001F009F8012208213B4800F03EFF30
:1033E000064800224FF48071803800F037FF37A084
:1033F00000F0FAFF44A000F0F7FFFBE74041004077
:1034000000B0710B103D8057000007400000002005
:103410000A0A4350552040202564487A0A000000DB
:103420002B2D2D2D2D2D2D2D2D2D2D2D2D2D2D2DCE
:103430002D2D2D2D2D2D2D2D2D2D2D2D2D2D2D2DBC
:103440002D2D2D2D2D2D2D2D2D2D2D2D2D2D2D2DAC
:103450002D2D2B0A000000007C2020202050422E21
:1034600033284F75747075742920616E6420504440
:103470002E3828496E707574292053616D706C6503
:1034800020436F646520202020207C0A000000007B
:103490002B2D2D2D2D2D2D2D2D2D2D2D2D2D2D2D5E
:1034A0002D2D2D2D2D2D2D2D2D2D2D2D2D2D2D2D4C
:1034B0002D2D2D2D2D2D2D2D2D2D2D2D2D2D2D2D3C
:1034C0002D2D2B0A0A000000404000404750494F74
:1034D0002050422E33286F7574707574206D6F64A0
:1034E000652920636F6E6E65637420746F2050448D
:1034F0002E3828696E707574206D6F646529202ED2
:103500002E2E2E2E2E00000048656C6C6F000000E1
:1035100010B5044643A0216800F066FF44A061682E
:1035200000F062FF45A0A16800F05EFF46A0E168E0
:1035300000F05AFF47A0216900F056FF48A06169DA
:1035400000F052FF49A0A16900F04EFFE169BDE81B
:10355000104049A000F048BF04464AA000F044FFD4
:103560002046FFF7D5FFFEE74C498A691202FCD4DA
:103570000A2804D10D220A608A691202FCD408606C
:103580007047F1E7454881694904FCD40068C0B23E
:10359000704742488069C0F3803070473F48806977
:1035A000C0F300707047ECE770B559239A071624F2
:1035B0008825C2F80031C2F80041C2F80051D2F8A3
:1035C0000061002EF5D0364B45F6A5229A600968B9
:1035D000324A02290AD003290DD0042911D0052925
:1035E00015D091690902FCD4106070BD916909027F
:1035F000FCD4106070BD2B498A691202FCD40860AB
:1036000070BD29498A691202FCD4086070BD27493F
:103610008A691202FCD4086070BDB3E74FF0FF3036
:1036200070470000723020203D20307825780A0055
:10363000723120203D20307825780A007232202017
:103640003D20307825780A00723320203D203078E4
:1036500025780A00723132203D20307825780A0022
:103660006C7220203D20307825780A00706320207D
:103670003D20307825780A00707372203D20307824
:1036800025780A00496E2048617264204661756C95
:10369000742048616E646C65720A00000000074087
:1036A00000000440001007400020074000300740A1
:1036B0004A0503D570228261082282610A0503D57A
:1036C000426942F0010242618A0401D5F94A8261ED
:1036D0004A0401D51F224264090404D58021C16136
:1036E00040F20F31816370470021416070474168AB
:1036F00021F440514160704742688A4342607047FC
:10370000016941F400710161416941F480714161D5
:10371000416841F440514160704742680A43426049
:1037200070472DE9FF4104460F4600250026E24878
:1037300090E80E00C0688DE80E000390DF494FF05E
:1037400080408C4208D1D0F81412C1F30165D0F842
:103750002002C0F3032639E0D9498C4208D1D0F8C1
:103760001412C1F38165D0F82002C0F303362DE0B6
:10377000D4498C4208D1D0F81C12C1F30165D0F8AD
:10378000300200F00F0621E0CF498C4208D1D0F87A
:103790001C12C1F38165D0F83002C0F3031615E0A6
:1037A000CA498C4208D1D0F81C12C1F30175D0F877
:1037B0003002C0F3032609E0C5498C4206D1D0F897
:1037C0001C128D0FD0F83002C0F3033600202063A6
:1037D0000320E060A068BF490840A060E846012DD2
:1037E00002D100F003FB0190002F17D058F82510EC
:1037F000761CB1FBF6F000EB5700B0FBF7F0801E33
:10380000B0F5803F0CD3B1FBF6F000EBC700B0FB86
:10381000F7F06FF0010101EB10106062BDE8FF816D
:1038200040F040506062F9E7F0B504460026002001
:103830004FF080470EE0002304E05B1CBB4201D345
:10384000012602E0A5696D04F7D4012E04D0236897
:103850000B54401C9042EED3F0BD2DE9FF5F0446AF
:10386000DDF838A00F46904699460025002692487C
:10387000D0E905230169C0698DE80E0003908F49E6
:103880004FF080408C4208D1D0F81412C1F301658A
:10389000D0F82002C0F3032639E089498C4208D1D0
:1038A000D0F81412C1F38165D0F82002C0F30336BA
:1038B0002DE084498C4208D1D0F81C12C1F3016577
:1038C000D0F8300200F00F0621E07F498C4208D189
:1038D000D0F81C12C1F38165D0F83002C0F3031692
:1038E00015E07A498C4208D1D0F81C12C1F3017559
:1038F000D0F83002C0F3032609E075498C4206D1A6
:10390000D0F81C128D0FD0F83002C0F30336EB460E
:10391000012D02D100F06AFA0190DFB15BF82510A9
:10392000761CB1FBF6F000EB5700B0FBF7F0801E01
:10393000B0F5803F0BD3B1FBF6F000EBC700B0FB56
:10394000F7F06FF0010101EB1010606202E040F04F
:103950004050606248EA090848EA0A08C4F80C8046
:10396000BDE8FF9F026A22F0FF020A43026241683B
:1039700041F40061416070472DE9FF4704460F465E
:103980009046002500264C48D0E90923016AC06A08
:103990008DE80E00039002202063484940078C42C6
:1039A00008D1D0F81412C1F30165D0F82002C0F399
:1039B000032639E042498C4208D1D0F81412C1F3F1
:1039C0008165D0F82002C0F303362DE03D498C42DA
:1039D00008D1D0F81C12C1F30165D0F8300200F014
:1039E0000F0621E038498C4208D1D0F81C12C1F3EF
:1039F0008165D0F83002C0F3031615E033498C42DC
:103A000008D1D0F81C12C1F30175D0F83002C0F310
:103A1000032609E02E498C4206D1D0F81C128D0FE6
:103A2000D0F83002C0F30336E946012D02D100F090
:103A3000DDF9019087B159F82500761CB0FBF6F04E
:103A400000EBC700B0FBF7F06FF0010101EB1010C5
:103A5000090C884200D26062B8F1000F09D0A06A58
:103A600020F02000A062A06A40F00200A062BDE841
:103A7000FF87A06A40F04000A062A06A20F0020028
:103A8000A062F4E710B503230363C36A124C23401A
:103A9000C362C36A41EA02610B43C36210BD0123E2
:103AA0000363C36A23F0CF03C362C36A11430B43AA
:103AB000C362704701000001E846000000000740B3
:103AC000001007400020074000300740004007403A
:103AD000005007400FFFF0FFFFF8FF00F0B504466D
:103AE000002600204FF080470EE0002304E05B1C1E
:103AF000BB4201D3012602E0A5692D02F7D4012EB5
:103B000004D00B5C2360401C9042EED1F0BD00005D
:103B100000F01F0201219140C943FA4A800F02EBD5
:103B2000800002680A4002607047F748F0E72DE91C
:103B3000F04110F47F3F43D0F24B103B1B68F14E35
:103B400003F0FF0CEF4B28361C33371DC0F38144C4
:103B50006FEA904503EB8403BCF1010F04D0022C03
:103B600022D0AC0722D022E0DFF898C3022C0CF15F
:103B7000240C04D16FEA00085FEAC86802D0022C66
:103B800002D006E0634612E000F01F08B8F11D0FF6
:103B900004D0022C04D0AC0704D008E0634606E051
:103BA000334604E03B4602E0334600E03B461C68F7
:103BB000C0F38725C0F34416B540AC4314431C60E2
:103BC000420E52070ED0CF4BC0F301720C3303EB01
:103BD00082021368C0F34264C0F304508440A343DC
:103BE0000B431360BDE8F08100F01F0201219140FA
:103BF000C44A800F02EB800002680A4302607047EB
:103C000010B5044641EA4210BE4940F010005C3154
:103C10000860BD4B1846FFF7E7FF2146BDE810409E
:103C20000022184683E7B948016841F004010160A9
:103C3000B748D0F8101141F08001C0F810110168A8
:103C4000026822F00302026030BF01607047AF4893
:103C5000016821F004010160AA48001F016821F0F9
:103C60008001016030BF7047A648001F0068C00790
:103C700001D0A848704700207047A248001F006884
:103C8000800702D54FF4004070470020704710B500
:103C9000FFF7C8FA4FF08041D1F8340242079E483E
:103CA00019D0D1F8342202F00702012A15D0D1F838
:103CB000342202F00702022A12D0D1F8342202F094
:103CC0000702032A0FD0D1F8341201F007010429AA
:103CD0000CD0006810BD006810BD0068400810BD21
:103CE0000068800810BD0068C00810BD00680009A9
:103CF00010BD10B5FFF796FA4FF08041D1F83402AD
:103D000010F0700F844819D0D1F83422C2F3021297
:103D1000012A15D0D1F83422C2F30212022A12D09D
:103D2000D1F83422C2F30212032A0FD0D1F8341290
:103D3000C1F3021104290CD0006810BD006810BD49
:103D40000068400810BD0068800810BD0068C00809
:103D500010BD0068000910BD10B5FFF763FA6E488A
:103D6000006810BD10B5FFF75DFA6B48006810BD24
:103D700030B5054669490124A20705E0081EA1F1F6
:103D8000010101DC002404E0D2F8503235EA0300DE
:103D9000F4D1204630BD2DE9F04107460E46594C7E
:103DA000241F206D00F01005206840F00400206002
:103DB0001020FFF7DDFF206940F007002061206A36
:103DC00020F00F0232432262206920F007013943BC
:103DD0002161A4F50074FFF725FA002D05D1D4F870
:103DE000000220F00400C4F80002FBE608B5002041
:103DF0004BA10968009143493C31096811F4A02F97
:103E000006D1484A43488B0303D5090300D5104621
:103E100008BD0B0300D51046C1F381331DF8032004
:103E2000C1F308039B1CC1F34421491C800858437B
:103E300011FB02F1B0FBF1F0C00008BD31483C308D
:103E4000016841F48031016070472DE9F84F044664
:103E50000D46FFF7F3FF14B32A48001F016841F035
:103E6000040101601020FFF783FF4FF40020009051
:103E7000DFF8B0902C482D49284488427ED84FF076
:103E8000FF3100274FF000080026AB460123B9B3ED
:103E9000032B62D0042B10D0022B11D012E0194852
:103EA000001F016841F0010101600120FFF760FF80
:103EB00000200090DFF85C90DCE74FEA8B0501E022
:103EC0004FEA4B050222E1B1B9FBF2F0184CDFF8E2
:103ED00060C00444CCF1000C64453BD80224DFF8F8
:103EE00054E0C0F35D0A0AFB04F0DFF83CC08444F0
:103EF000F4452AD8B0EB950F1ED9A0EB950C1DE028
:103F00002EE02AE0040200400600C05710ED00E059
:103F1000F0000040002D31010000002080F520005D
:103F200001020204001BB700800F05FD8074D21A45
:103F300000F7C2FFC0687804C0EB950C8C4504D232
:103F400061461746A0461E4621B1641C40F201207E
:103F50008442C8D9521C202AB5D95B1C042B96D99F
:103F60000098711E40EA8131781E41EA4020A8F194
:103F700002010843B0490860042000E009E0FFF7AF
:103F8000F7FE7E43B9FBF6F000FB08F04000BDE809
:103F9000F88F44B1A848A94901600420FFF7E8FE62
:103FA000BDE8F84F22E7A44844F21E010160F4E79F
:103FB00070B506464FF08044D4F8500200F010056A
:103FC0009F48864200D9064604F50074206840F0F8
:103FD000040020601020FFF7CBFE206940F00700AE
:103FE0002061206A20F00F0020622068A4F5007490
:103FF000C00705D031460020FFF727FF064609E03D
:1040000031464FF40020FFF720FF0646D4F8500257
:1040100000F0100500210220FFF7BDFE2DB9D4F8F5
:10402000000220F00400C4F80002304670BD82494E
:1040300030390A6822F0380202430A6070477E492C
:1040400040390A6802430A6070477B4940390A6870
:1040500082430A60704730B54FF0E02200241461BB
:1040600004280DD0744D303D2B6823F038030343F2
:104070002B6051619461106940F00300106130BD04
:10408000106940F004001061F3E74FF0E0210020D8
:104090000861704730B504464FF08045D5F8F4010B
:1040A000C0B2012804D0042C18D0052C16D01EE074
:1040B000042C02D0052C09D019E0D5F8900220F08C
:1040C000700040F01000C5F8900210E00424D5F80C
:1040D000900220F07000C5F8900208E0D5F80002C8
:1040E00040F00800C5F800020820FFF741FED5F8AF
:1040F000900220F007002043C5F8900230BD4FF039
:104100008041D1F8F421D2B2012A07D0D1F890220F
:1041100022F440320243C1F890227047D1F8902235
:1041200022F440320243C1F8902270474248543092
:104130000068704730B5404C603404EB8000046880
:1041400040F2F715AC4344EA01111143194341F021
:104150000101016030BD1FB53A4991E81C00C968F2
:104160008DE81C000391384A9106904205D1D1F8A0
:10417000180200F0010004B010BD344A904204D18E
:10418000D1F81802C0F34000F5E7314A904204D15B
:10419000D1F81802C0F30020EDE72E4A904204D176
:1041A000D1F81802C0F34020E5E7410E490710D0CE
:1041B000C0F301725DF822101F4A303A11440968B9
:1041C000C0F34262C0F304508240114021FA00F073
:1041D000D1E70020CFE71FB51A49D1E905340A69B4
:1041E000C9698DE81C00039110F47F3F22D0C0F311
:1041F00081425DF82210104A203A11440E4A4C3A8E
:104200001268D2B2012A0BD1C243134BD20604D09A
:1042100000F01F021D2A02D002E0194600E01946F4
:104220000968C0F38722C0F344108240114021FA8C
:1042300000F0A0E700209EE7400200401E4008007A
:1042400000B0710B18470000100000A2110010A26E
:10425000120080A2130090A228020040F0B50023B3
:104260000127032607FA03F48C4309D105685C0093
:1042700006FA04FC25EA0C0502FA04F4254305605D
:104280005B1C102BEED3F0BD10B5836901248C406C
:10429000A343140E8C4023438361C3694FF0011480
:1042A0008C4022F07F42A3438A401343C36110BD78
:1042B000826901238B409A438261C2694FF00113E6
:1042C0008B409A43C2617047F0B500230127032653
:1042D00007FA03F40C4209D0856A5C0006FA04FC74
:1042E00025EA0C0502FA04F4254385625B1C102BB9
:1042F000EED3F0BDF0B500230127032607FA03F43F
:104300000C4209D0056B5C0006FA04FC25EA0C059A
:1043100002FA04F4254305635B1C102BEED3F0BDB9
:104320002DE9F05F0546002092469B4688460646EA
:10433000814640241BE0284641464746224600F07D
:1043400042F853465A46C01A914110D311461846B6
:10435000224600F029F82D1A67EB01084F46224645
:104360000120002100F020F817EB00094E41201E2B
:10437000A4F10104DFDC484631462A464346BDE845
:10438000F09F0000064C074D06E0E06840F0010396
:1043900094E8070098471034AC42F6D3FEF72EFF9E
:1043A0003847000058470000202A04DB203A00FA72
:1043B00002F1002070479140C2F1200320FA03F37C
:1043C000194390407047202A04DB203A21FA02F07A
:1043D0000021704721FA02F3D040C2F1200291403F
:1043E00008431946704700000FB4054B10B503A9E8
:1043F000044A029800F018F810BC5DF814FB0000A5
:10440000A93500002C00002002E008C8121F08C1D6
:10441000002AFAD170477047002001E001C1121F45
:10442000002AFBD1704700002DE9FF4F8DB09B465D
:104430000F460446002606E025280BD05A460F9961
:104440009047641C761C20780028F5D111B03046C6
:10445000BDE8F08F0025A8460122984900E00543F9
:1044600014F8013F203B02FA03F00842F7D120780C
:104470002E2817D114F8010F45F004052A280ED074
:104480006FF02F022078A0F1300109290AD808EB3B
:10449000880102EB410100EB0108641CF2E757F8C8
:1044A000048B641C20786C280DD004DC4C2812D0BE
:1044B0006A2811D104E074280DD07A280CD10AE0C2
:1044C00045F4001507E0617845F48015814202D17A
:1044D000641C05F58015641C2278692A45D008DC27
:1044E000002AB3D0582A69D0632A10D0642A08D190
:1044F0003BE0702A67D0732A13D0752A5CD0782AE3
:104500005CD010465A460F999047761CD3E017F8B6
:10451000040B8DF8000000208DF80100E946012011
:1045200003E057F8049B4FF0FF3069074FF0000598
:1045300001D40AE06D1C45450DDA8542FADB19F815
:1045400005100029F6D106E06D1C8542FCDB19F848
:1045500005100029F8D12E4404E019F8010B5A4641
:104560000F9990476D1EF8D2A5E00A200021CDE9F1
:104570000801C5F3025002280DD001CFC117031E58
:1045800071F100030DDA4FF0000CD0EB0C006CEB76
:1045900001012D2308E0FF1D27F00707F7E80201BE
:1045A000EDE72B0504D52B238DF8283001233BE0C4
:1045B000EB0739D02023F7E70A2000E01020002184
:1045C000CDE9080107E01020002145F00405CDE900
:1045D00008014FF00808C5F3025002280FD001CFA0
:1045E00000214FF0000A2B071FD5702A0DD0DDE9FE
:1045F00008C38CF0100C5CEA030C0CD015E0FF1D16
:1046000027F00707F7E80201EBE740228DF82820A2
:104610004FF0010A0BE050EA010306D030238DF879
:1046200028308DF8292002239A46582A04D024A243
:104630000DF120090B9209E026A2F9E7DDE9082334
:10464000FFF76EFE0B9B9B5C09F8013D50EA0102EF
:10465000F4D1ADEB090020300890680701D44FF089
:1046600001080899884502DDA8EB010000E0002060
:104670008046002506E00AA85A46405D0F999047FB
:104680006D1C761C5545F6DB04E030205A460F9928
:104690009047761CB8F10001A8F10108F5DC05E0AF
:1046A00019F8010B5A460F999047761C0899481E35
:1046B00008900029F4DC641CC5E60000092801000C
:1046C0003031323334353637383961626364656688
:1046D000000000003031323334353637383941424A
:1046E0004344454600000000002D31010000000059
:1046F00000800000001BB700002D31010000000009
:1047000000800000001BB700002D310100000000F8
:1047100000800000001BB700000000000400000043
:10472000080000000C000000000000000400000071
:104730000C0000001000000058470000000000209E
:1047400030000000084400008847000030000020CE
:104750000008000018440000002D31010C0000008A
:10476000001BB700002D3101008000000000000098
:104770001027000000000000000000000000000002
:08478000001BB700010000005E
:04000005000032D5F0
:00000001FF
